{
  "contractName": "bank",
  "abi": [
    {
      "constant": true,
      "inputs": [],
      "name": "all",
      "outputs": [
        {
          "name": "",
          "type": "uint256"
        }
      ],
      "payable": false,
      "stateMutability": "view",
      "type": "function"
    },
    {
      "constant": true,
      "inputs": [
        {
          "name": "",
          "type": "address"
        }
      ],
      "name": "pendingReturns",
      "outputs": [
        {
          "name": "",
          "type": "uint256"
        }
      ],
      "payable": false,
      "stateMutability": "view",
      "type": "function"
    },
    {
      "inputs": [],
      "payable": false,
      "stateMutability": "nonpayable",
      "type": "constructor"
    },
    {
      "payable": true,
      "stateMutability": "payable",
      "type": "fallback"
    },
    {
      "anonymous": false,
      "inputs": [
        {
          "indexed": false,
          "name": "data",
          "type": "bytes"
        }
      ],
      "name": "fallbackTrigged",
      "type": "event"
    },
    {
      "constant": false,
      "inputs": [],
      "name": "deposit",
      "outputs": [],
      "payable": true,
      "stateMutability": "payable",
      "type": "function"
    },
    {
      "constant": false,
      "inputs": [],
      "name": "bid",
      "outputs": [],
      "payable": true,
      "stateMutability": "payable",
      "type": "function"
    },
    {
      "constant": false,
      "inputs": [],
      "name": "withdraw",
      "outputs": [
        {
          "name": "",
          "type": "bool"
        }
      ],
      "payable": false,
      "stateMutability": "nonpayable",
      "type": "function"
    },
    {
      "constant": false,
      "inputs": [
        {
          "name": "_to",
          "type": "address"
        },
        {
          "name": "amount",
          "type": "uint256"
        }
      ],
      "name": "transactionTo",
      "outputs": [
        {
          "name": "",
          "type": "bool"
        }
      ],
      "payable": true,
      "stateMutability": "payable",
      "type": "function"
    }
  ],
  "bytecode": "0x608060405234801561001057600080fd5b5033600260006101000a81548173ffffffffffffffffffffffffffffffffffffffff021916908373ffffffffffffffffffffffffffffffffffffffff16021790555061055f806100616000396000f3fe6080604052600436106100555760003560e01c806310c4e8b0146101125780631998aeef1461013d57806326b387bb146101475780633a3d60e3146101ac5780633ccfd60b14610212578063d0e30db014610241575b3460015401600181905550346000803373ffffffffffffffffffffffffffffffffffffffff1673ffffffffffffffffffffffffffffffffffffffff168152602001908152602001600020600082825401925050819055507ffcce2a7c4e078f3996a0f603e266b3637cc3c0760b935787b4e8153eac3a240760003660405180806020018281038252848482818152602001925080828437600081840152601f19601f820116905080830192505050935050505060405180910390a1005b34801561011e57600080fd5b5061012761024b565b6040518082815260200191505060405180910390f35b610145610251565b005b34801561015357600080fd5b506101966004803603602081101561016a57600080fd5b81019080803573ffffffffffffffffffffffffffffffffffffffff1690602001909291905050506102aa565b6040518082815260200191505060405180910390f35b6101f8600480360360408110156101c257600080fd5b81019080803573ffffffffffffffffffffffffffffffffffffffff169060200190929190803590602001909291905050506102c2565b604051808215151515815260200191505060405180910390f35b34801561021e57600080fd5b50610227610311565b604051808215151515815260200191505060405180910390f35b610249610531565b005b60015481565b3460015401600181905550346000803373ffffffffffffffffffffffffffffffffffffffff1673ffffffffffffffffffffffffffffffffffffffff16815260200190815260200160002060008282540192505081905550565b60006020528060005260406000206000915090505481565b60008273ffffffffffffffffffffffffffffffffffffffff166108fc839081150290604051600060405180830381858888f19350505050610306576000905061030b565b600190505b92915050565b6000806000803373ffffffffffffffffffffffffffffffffffffffff1673ffffffffffffffffffffffffffffffffffffffff168152602001908152602001600020549050600260009054906101000a900473ffffffffffffffffffffffffffffffffffffffff1673ffffffffffffffffffffffffffffffffffffffff163373ffffffffffffffffffffffffffffffffffffffff16141561045457600154600080600260009054906101000a900473ffffffffffffffffffffffffffffffffffffffff1673ffffffffffffffffffffffffffffffffffffffff1673ffffffffffffffffffffffffffffffffffffffff168152602001908152602001600020819055506000803373ffffffffffffffffffffffffffffffffffffffff1673ffffffffffffffffffffffffffffffffffffffff1681526020019081526020016000205490505b60008111156105285760008060003373ffffffffffffffffffffffffffffffffffffffff1673ffffffffffffffffffffffffffffffffffffffff168152602001908152602001600020819055503373ffffffffffffffffffffffffffffffffffffffff166108fc829081150290604051600060405180830381858888f1935050505061052757806000803373ffffffffffffffffffffffffffffffffffffffff1673ffffffffffffffffffffffffffffffffffffffff16815260200190815260200160002081905550600091505061052e565b5b60019150505b90565b56fea165627a7a72305820d2817a8bb9397e5dbd7fbdfc8e771562003730930e7440333dd1ee9a0082c1110029",
  "source": "pragma solidity >=0.4.21 <0.6.0;\n\ncontract bank {\n    mapping(address => uint) public pendingReturns;\n    uint public all;\n    address admin;\n  event fallbackTrigged(bytes data);\n\n  function() external payable{\n        all=all+msg.value;\n        pendingReturns[msg.sender]+=msg.value;\n        emit fallbackTrigged(msg.data);\n      }\n\n  function deposit() payable public{\n  }\n    constructor() public{\n       admin=msg.sender;\n    }\n\n    function bid() public payable {\n        all=all+msg.value;\n        pendingReturns[msg.sender]+=msg.value;\n    }\n    function withdraw() public returns (bool) {\n        uint myBalance = pendingReturns[msg.sender];\n        if(msg.sender==admin)\n        {\n          pendingReturns[admin]=all;\n          myBalance = pendingReturns[msg.sender];\n        }\n        if (myBalance > 0) {\n            pendingReturns[msg.sender] = 0;\n            if (!msg.sender.send(myBalance)) {\n                pendingReturns[msg.sender] = myBalance;\n                return false;\n            }\n        }\n        return true;\n    }\n   \n     function  transactionTo(address _to,uint amount) public payable returns (bool){\n        if(!address(uint160(_to)).send(amount)){\n            return false;\n         }\n          return true;\n     }\n\n}\n",
  "sourcePath": "/SpadeA/contracts/bank.sol",
  "compiler": {
    "name": "solc",
    "version": "0.5.8+commit.23d335f2.Emscripten.clang"
  },
  "schemaVersion": "3.0.16",
  "updatedAt": "2019-11-09T07:30:38.247Z",
  "devdoc": {
    "methods": {}
  },
  "userdoc": {
    "methods": {}
  }
}